:100000000C9463000C948B000C948B000C948B006C
:100010000C948B000C948B000C948B000C948B0034
:100020000C948B000C948B000C948B000C948B0024
:100030000C948B000C948B000C948B000C948B0014
:100040000C94B8050C948B000C9454070C94860700
:100050000C948B000C948B000C948B000C948B00F4
:100060000C948B000C948B0000000008000201002F
:100070000003040700000000000000000102040863
:100080001020408001020408102001020408102002
:10009000040404040404040402020202020203032E
:1000A00003030303000000002300260029000000D2
:1000B0000000250028002B0000000000240027007D
:1000C0002A00CF01B60711241FBECFEFD8E0DEBF54
:1000D000CDBF11E0A0E0B1E0E0E2F7E102C00590A1
:1000E0000D92A039B107D9F722E0A0E9B1E001C033
:1000F0001D92A536B207E1F710E0C6ECD0E004C0CF
:100100002297FE010E948A0BC23CD107C9F70E94C8
:10011000EC080C948E0B0C94000020E042E060E1AF
:1001200080E991E00E94A00267E388EA91E00E94E2
:10013000850360E0809106010E94E50661E08DE0A4
:100140000E94E50661E089E00E94E50661E081E049
:100150000E94E50640E060E080E991E00E948602AE
:100160006BE071E080E991E00E94370841E060E0D7
:1001700080E991E00E94860267E171E080E991E008
:100180000E94370864EF71E080E090E00C94310643
:10019000CF93DF9360E088EA91E00E946E050E94B1
:1001A000440A7093BC016093BB0140E060E088EAC0
:1001B00091E00E94D6040E94440A7093BE016093AD
:1001C000BD0180E991E00E947F0240E060E080E9AB
:1001D00091E00E94860265E271E080E991E00E9470
:1001E00037086091BD017091BE014AE050E080E99E
:1001F00091E00E94E30863E371E080E991E00E94EE
:10020000370841E060E080E991E00E94860265E302
:1002100071E080E991E00E9437086091BB01709124
:10022000BC014AE050E080E991E00E94E30860E40C
:1002300071E080E991E00E94370864EF71E080E0AE
:1002400090E00E94310680E991E00E947F02809157
:1002500006010E949F06EC018091BD019091BE01B4
:1002600040E060E04F97CCF08091BB019091BC01E1
:10027000C3979CF080E991E00E94860262E471E0FD
:1002800080E991E00E94370861E081E00E941E074A
:1002900064E670E080E090E012C080E991E00E94A6
:1002A000860269E471E080E991E00E94370860E02D
:1002B00081E00E941E0764EF71E080E090E00E9400
:1002C0003106CD3B22E0D20744F140E06BE080E90B
:1002D00091E00E94860261E571E080E991E00E9470
:1002E000370841E06BE080E991E00E94860265E515
:1002F00071E080E991E00E94370861E08DE00E94A2
:100300001E0741E060E080E991E00E9486026AE514
:1003100071E080E991E00E943708CE018C52914053
:100320008139914048F440E06BE080E991E00E941F
:10033000860262E671E00BC0CC32D14044F540E069
:100340006BE080E991E00E94860261E771E080E95C
:1003500091E00E94370841E06BE080E991E00E9463
:10036000860265E571E080E991E00E94370860E06F
:100370008DE00E941E0741E060E080E991E00E946C
:10038000860268E671E080E991E00E94370864EF38
:1003900071E080E090E0DF91CF910C943106CF9234
:1003A000EF920F9326E04BE06091080188EA91E01C
:1003B0000E94640382E0C82E93E0E92E04E025E069
:1003C0004BE06CE080E991E00E943E030F91EF90DA
:1003D000CF900895CF93DF93EC0160E08E810E946F
:1003E0001E0781E090E00E94590661E08E810E9424
:1003F0001E0781E090E00E94590660E08E810E9415
:100400001E0784E690E0DF91CF910C945906EF929D
:10041000FF920F931F93CF93DF938C01C0E0D0E046
:10042000E62EF12CB7010C2E02C0759567950A9443
:10043000E2F76170F801EC0FFD1F87810E941E0733
:100440002196C430D10571F7C801DF91CF911F917A
:100450000F91FF90EF900C94EA01EF92FF920F93AF
:100460001F93CF93DF938C01C0E0D0E0E62EF12CF8
:10047000B7010C2E02C0759567950A94E2F761707A
:10048000F801EC0FFD1F87810E941E072196C830DE
:10049000D10571F7C801DF91CF911F910F91FF90A6
:1004A000EF900C94EA011F93CF93DF93EC01162F8A
:1004B000642F8C810E941E078D818F3F19F060E0B0
:1004C0000E941E078F85612F84FF06C0CE01DF9139
:1004D000CF911F910C942D0270E084E07595679583
:1004E0008A95E1F7CE010E940702612FCE01DF91CC
:1004F000CF911F910C94070240E00C94530261E0ED
:100500000E947C0280ED97E00C945906443008F07C
:1005100043E0FC012389421710F04FEF420FFC012A
:10052000E40FF11D2489260F2068622F0C947C02B1
:10053000FC016089262F2460208B6C600C947C0267
:100540000F931F93CF93DF93EC01423018F08F8508
:1005500088608F874B8B1C8A80E48D8B6E8B70E05C
:10056000605C7F4F6F8B222329F0413019F48F8517
:1005700084608F8761E08C810E94E5068D818F3FCA
:1005800019F061E00E94E50661E08E810E94E506B7
:1005900000E010E08F8584FF03C088E090E002C097
:1005A00084E090E00817190754F4FE01E00FF11FF2
:1005B00061E087810E94E5060F5F1F4FEBCF80E56A
:1005C00093EC0E94590660E08C810E941E0760E057
:1005D0008E810E941E078D818F3F19F060E00E947E
:1005E0001E076F8564FD1DC063E0CE010E940702F7
:1005F00084E991E10E94590663E0CE010E9407025E
:1006000084E991E10E94590663E0CE010E9407024D
:1006100086E990E00E94590662E0CE010E9407023E
:1006200016C06062CE010E947C0284E991E10E94C2
:1006300059066F856062CE010E947C0286E990E0D7
:100640000E9459066F856062CE010E947C026F8510
:100650006062CE010E947C0284E0888BCE010E9401
:100660009802CE010E947F0282E0898B66E0CE0173
:10067000DF91CF911F910F910C947C02CF92EF925A
:100680000F93FC01138212828BE791E091838083A8
:1006900064838FEF8583468327830087E186C28644
:1006A0001386148615861686178620E041E060E1E1
:1006B000CF010F91EF90CF900C94A00241E00E94E7
:1006C000530281E090E00895DC0115966C93159734
:1006D00016964C93169770E0FB01E458FF4FE49197
:1006E0001796EC931797FB01E057FF4F649118960C
:1006F0006C93189740E85EE360E070E01D964D93C0
:100700005D936D937C93509708951F93CF93DF93E0
:10071000EC01162F62E08D810E94E5060E94020620
:10072000605D77408109910969877A878B879C870B
:100730001A8BDF91CF911F910895EF92FF920F9343
:100740001F93CF93DF93EC01EF80662311F0FE2C13
:1007500001C0F12CA885B0E0AA0FBB1FAC55BF4F5C
:1007600080E090E0FD0125913491F90120812E2156
:10077000AC0160E070E02F110FC001960D851E8561
:100780002F853889401751076207730758F33FEFE9
:100790002FEF8FEF9FEF03C0382F252FCB01632F53
:1007A000722FDF91CF911F910F91FF90EF900895DD
:1007B000CF92DF92EF92FF920F931F93CF93DF932D
:1007C000CDB7DEB7C054D1400FB6F894DEBF0FBE30
:1007D000CDBF8C01F62E0E940206F11016C0F80162
:1007E000C184D284E384F4849B01AC012C193D09BB
:1007F0004E095F0969017A0130EDC31637E0D3066F
:10080000E104F10410F48189C1C0F80161877287A5
:10081000838794871482138212821182108262E08D
:1008200085810E94E50661E070E080E090E00E9432
:10083000310661E0F80185810E94E50660E0F8017B
:1008400085810E941E07F80186818551823028F437
:100850008CE494E00E94590606C064E170E080E0F8
:1008600090E00E94310662E0F80185810E94E50671
:10087000F801828990E00E945906F89460E0C8016E
:100880000E949D036F3F7F4F8F4F9F4F49F061E064
:10089000C8010E949D036F3F7F4F8F4F9F4F21F4F0
:1008A000F801118A789471C06E01FFEBCF1AFEEF48
:1008B000DF0A9E012F5F3F4F790160E0C8010E946F
:1008C0009D03F701608371838283938361E0C80194
:1008D0000E949D03F7016483758386839783F8E004
:1008E000EF0EF11CEC14FD0441F778949E012F5F8C
:1008F0003F4F790120E030E0F70140815181628172
:10090000738184819581A681B7814F3FFFEF5F0797
:100910006F077F07C1F18F3FEFEF9E07AE07BE075E
:1009200091F1F901F595E795F595E795F595E79539
:10093000E00FF11FD080DD0C481759076A077B07CD
:1009400010F0D08203C08D2D816080832F5F3F4FD8
:10095000F8E0EF0EF11C2832310571F6F801248120
:1009600030E04081818190E0840F911D4281840FAD
:10097000911D4381840F911D99272817390719F478
:1009800081E0818B03C0F801118A80E0C05CDE4FFA
:100990000FB6F894DEBF0FBECDBFDF91CF911F9190
:1009A0000F91FF90EF90DF90CF900895CF92DF925C
:1009B000EF92FF920F931F93CF93DF938C01C62F7B
:1009C000642F0E94D803882309F47BC0F801868134
:1009D0008C3009F447C018F48B30C9F072C08551CF
:1009E000823008F06EC0F801D2816D2F6F7770E011
:1009F000762F66278381682B80E090E00E94750A3D
:100A00002DEC3CEC4CEC5DE30E94030B49C0F8017B
:100A1000628170E080E090E00E94750A6B017C01C9
:100A2000F801D381D7FF0AC09B01AC0160E070E000
:100A300080E89FEB0E94DF096B017C016D2F6F70D6
:100A400070E080E090E00E94770A2DEC3CEC4CECEA
:100A50005DE30E94030B9B01AC01C701B6010E943C
:100A6000E00920C0F801D2816D2F70E080E090E0B5
:100A70000E94750A6B017C01F80163816F7070E060
:100A800080E090E00E94770A2DEC3CEC4CEC5DE3BA
:100A90000E94030B9B01AC01C701B6010E94E00953
:100AA000D7FD9058CC2389F026E636E646EE5FE384
:100AB0000E94030B20E030E040E052E40E94E00995
:100AC00004C060E070E080EC9FE7DF91CF911F9160
:100AD0000F91FF90EF90DF90CF900895CF92DF922B
:100AE000EF92FF92CF93DF93EC010E94D80388230B
:100AF000A1F18E818B3088F18D30A0F0855182304C
:100B000060F5688170E0762F66278981682B80E028
:100B100090E00E94750A2DEC3CEC4CEC5DE30E94E9
:100B2000030B1FC0688170E080E090E00E94770AAC
:100B30006B017C01698170E080E090E00E94770A9F
:100B40002DEC3CEC4CEC5DE30E94030B9B01AC01F3
:100B5000C701B6010E94E00904C060E070E080ECCB
:100B60009FE7DF91CF91FF90EF90DF90CF900895B6
:100B70001F920F920FB60F9211242F933F938F93D2
:100B80009F93AF93BF938091C0019091C101A091B9
:100B9000C201B091C3013091BF0123E0230F2D3773
:100BA00020F40196A11DB11D05C026E8230F029671
:100BB000A11DB11D2093BF018093C0019093C1017D
:100BC000A093C201B093C3018091C4019091C5016B
:100BD000A091C601B091C7010196A11DB11D8093DE
:100BE000C4019093C501A093C601B093C701BF9102
:100BF000AF919F918F913F912F910F900FBE0F90CA
:100C00001F9018952FB7F8946091C0017091C101A1
:100C10008091C2019091C3012FBF08953FB7F8940E
:100C20008091C4019091C501A091C601B091C70106
:100C300026B5A89B05C02F3F19F00196A11DB11D37
:100C40003FBF6627782F892F9A2F620F711D811D54
:100C5000911D42E0660F771F881F991F4A95D1F7B3
:100C60000895CF92DF92EF92FF92CF93DF936B01C3
:100C70007C010E940E06EB01C114D104E104F104D1
:100C800089F00E94FB080E940E066C1B7D0B683EDB
:100C9000734090F381E0C81AD108E108F108C85107
:100CA000DC4FEACFDF91CF91FF90EF90DF90CF90B4
:100CB00008958230910538F0880F991F880F991F89
:100CC00005970197F1F70895789484B5826084BD03
:100CD00084B5816084BD85B5826085BD85B5816040
:100CE00085BDEEE6F0E0808181608083E1E8F0E0A0
:100CF0001082808182608083808181608083E0E8CF
:100D0000F0E0808181608083E1EBF0E080818460AD
:100D10008083E0EBF0E0808181608083EAE7F0E0AF
:100D20008081846080838081826080838081816013
:100D300080838081806880831092C10008958E3006
:100D400008F08E50877020910A0190E4299F90014D
:100D50001124822B80937C0080917A0080648093A0
:100D60007A0080917A0086FDFCCF809178002091F6
:100D7000790090E0922B0895833081F028F481303F
:100D800099F08230A1F008958730A9F08830B9F049
:100D90008430D1F4809180008F7D03C080918000E9
:100DA0008F7780938000089584B58F7702C084B5D3
:100DB0008F7D84BD08958091B0008F7703C08091AE
:100DC000B0008F7D8093B0000895CF93DF9390E0C3
:100DD000FC01E458FF4F2491FC01E057FF4F849140
:100DE000882349F190E0880F991FFC01E854FF4FD8
:100DF000A591B49182559F4FFC01C591D4919FB7A5
:100E0000611108C0F8948C91209582238C9388817D
:100E100082230AC0623051F4F8948C91322F3095BD
:100E200083238C938881822B888304C0F8948C91CF
:100E3000822B8C939FBFDF91CF9108950F931F93C7
:100E4000CF93DF931F92CDB7DEB7282F30E0F901A3
:100E5000E859FF4F8491F901E458FF4F1491F901CB
:100E6000E057FF4F04910023C9F0882321F06983E4
:100E70000E94BC066981E02FF0E0EE0FFF1FE255F3
:100E8000FF4FA591B4919FB7F8948C91611103C065
:100E90001095812301C0812B8C939FBF0F90DF9110
:100EA000CF911F910F9108951F920F920FB60F923D
:100EB00011242F938F939F93EF93FF93E091D80189
:100EC000F091D9018081E091DE01F091DF0182FD96
:100ED00012C090818091E1018F5F8F732091E201B8
:100EE000821751F0E091E101F0E0E853FE4F958F59
:100EF0008093E10101C08081FF91EF919F918F91DB
:100F00002F910F900FBE0F901F9018951F920F9268
:100F10000FB60F9211242F933F934F935F936F93CC
:100F20007F938F939F93AF93BF93EF93FF9388EC3F
:100F300091E00E943709FF91EF91BF91AF919F918E
:100F40008F917F916F915F914F913F912F910F9072
:100F50000FBE0F901F90189588EC91E00E94FC083E
:100F600021E0892B09F420E0822F08951092CB0113
:100F70001092CA0188EE93E0A0E0B0E08093CC012B
:100F80009093CD01A093CE01B093CF0183E891E07F
:100F90009093C9018093C80185EC90E09093D501AE
:100FA0008093D40184EC90E09093D7018093D60194
:100FB00080EC90E09093D9018093D80181EC90E08F
:100FC0009093DB018093DA0182EC90E09093DD0155
:100FD0008093DC0186EC90E09093DF018093DE014A
:100FE0001092E1011092E2011092E3011092E401EB
:100FF0000895CF92DF92EF92FF920F931F93CF93BA
:10100000DF937C016A01EB0100E010E00C151D0587
:1010100071F06991D701ED91FC910190F081E02D83
:10102000C7010995892B19F00F5F1F4FEFCFC8013A
:10103000DF91CF911F910F91FF90EF90DF90CF90B4
:1010400008956115710581F0DB010D900020E9F72D
:10105000AD0141505109461B570BDC01ED91FC914C
:101060000280F381E02D099480E090E008950C94D3
:101070002108DC01ED91FC910190F081E02D0994B3
:101080008F929F92AF92BF92CF92DF92EF92FF9298
:101090000F931F93CF93DF93CDB7DEB7A1970FB612
:1010A000F894DEBF0FBECDBF7C01C42EE52FCB016F
:1010B000D22E19A221E02D1510F02AE0D22E8E0199
:1010C0000F5D1F4F8D2C912CA12CB12C6C2D7E2FE0
:1010D000A50194010E94660B8C2DD29E80191124CB
:1010E000015011098A3014F4805D01C0895CF80157
:1010F0008083211531054105510521F0C22EE32FD2
:10110000CA01E4CFB801C7010E942108A1960FB619
:10111000F894DEBF0FBECDBFDF91CF911F910F912D
:10112000FF90EF90DF90CF90BF90AF909F908F9007
:101130000895CF92DF92EF92FF920F931F93CF9378
:10114000DF93EC016A017B012115310579F4E88117
:10115000F9810190F081E02D642FDF91CF911F91F3
:101160000F91FF90EF90DF90CF9009942A303105D6
:10117000E9F477FF1AC06DE20E9439088C01442718
:101180005527BA014C195D096E097F092AE0CE0185
:101190000E944008800F911FDF91CF911F910F9106
:1011A000FF90EF90DF90CF9008952AE0B701A6015D
:1011B000CE01DF91CF911F910F91FF90EF90DF90C3
:1011C000CF900C9440089A01AB01662757FD6095BB
:1011D000762F0C94990808950E9464060E94EB08EB
:1011E0000E948D00C9E2D9E00E94C8002097E1F377
:1011F0000E942909F9CF0895FC01818D228D90E08C
:10120000805C9F4F821B91098F7399270895FC0181
:10121000918D828D981731F0828DE80FF11D858DAB
:1012200090E008958FEF9FEF0895FC01918D828DDE
:10123000981761F0828DDF01A80FB11D5D968C912A
:10124000928D9F5F9F73928F90E008958FEF9FEF35
:1012500008958CEA97E0892B49F080E090E0892B93
:1012600029F00E94AC0781110C9400000895FC0144
:10127000848DDF01A80FB11DA35ABF4F2C91848D1F
:1012800090E001968F739927848FA689B7892C9354
:10129000A089B1898C9180648C93938D848D9813EF
:1012A00006C00288F389E02D80818F7D80830895B8
:1012B000CF93DF93EC01888D8823C9F0EA89FB89FD
:1012C000808185FD05C0A889B9898C9186FD0FC0F4
:1012D0000FB607FCF5CF808185FFF2CFA889B989C9
:1012E0008C9185FFEDCFCE010E943709E7CFDF91CA
:1012F000CF910895CF92DF92FF920F931F93CF93D8
:10130000DF931F92CDB7DEB76C0181E0D60158960E
:101310008C9358975B969C915B975C968C915C97AD
:10132000981307C05096ED91FC915197808185FDEF
:101330002EC0F601038D10E00F5F1F4F0F731127B2
:10134000F02EF601848DF81211C00FB607FCF9CF0C
:10135000D6015096ED91FC915197808185FFF1CF98
:10136000C60169830E9437096981EBCF838DE80F3D
:10137000F11DE35AFF4F6083D6015B960C935B9798
:101380005296ED91FC915397808180620CC0D601FA
:101390005696ED91FC91579760835096ED91FC9194
:1013A000519780818064808381E090E00F90DF918D
:1013B000CF911F910F91FF90DF90CF9008955058DB
:1013C000BB27AA270ED0E5C0D6D030F0DBD020F066
:1013D00031F49F3F11F41EF4CBC00EF4E095E7FB0F
:1013E000C1C0E92FE7D080F3BA17620773078407FB
:1013F000950718F071F49EF5FFC00EF4E0950B2EE2
:10140000BA2FA02D0B01B90190010C01CA01A00156
:101410001124FF27591B99F0593F50F4503E68F1B1
:101420001A16F040A22F232F342F4427585FF3CFF2
:10143000469537952795A795F0405395C9F77EF4C3
:101440001F16BA0B620B730B840BBAF09150A1F00C
:10145000FF0FBB1F661F771F881FC2F70EC0BA0F92
:10146000621F731F841F48F4879577956795B7951A
:10147000F7959E3F08F0B3CF9395880F08F0992712
:10148000EE0F97958795089504D06894B111B5C073
:10149000089598D088F09F5790F0B92F9927B751A9
:1014A000A0F0D1F0660F771F881F991F1AF0BA9528
:1014B000C9F712C0B13081F09FD0B1E008959CC04F
:1014C000672F782F8827B85F39F0B93FCCF386951E
:1014D00077956795B395D9F73EF49095809570957B
:1014E00061957F4F8F4F9F4F0895E89409C097FBF8
:1014F0003EF490958095709561957F4F8F4F9F4FEB
:101500009923A9F0F92F96E9BB279395F69587952E
:1015100077956795B795F111F8CFFAF4BB0F11F4F1
:1015200060FF1BC06F5F7F4F8F4F9F4F16C0882398
:1015300011F096E911C0772321F09EE8872F762FCE
:1015400005C0662371F096E8862F70E060E02AF00F
:101550009A95660F771F881FDAF7880F96958795FB
:1015600097F9089597F99F6780E870E060E0089523
:101570009FEF80EC089500240A94161617061806AB
:101580000906089500240A94121613061406050687
:101590000895092E0394000C11F4882352F0BB0F18
:1015A00040F4BF2B11F460FF04C06F5F7F4F8F4F7B
:1015B0009F4F089557FD9058440F551F59F05F3FB6
:1015C00071F04795880F97FB991F61F09F3F79F065
:1015D00087950895121613061406551FF2CF4695E7
:1015E000F1DF08C0161617061806991FF1CF869569
:1015F0007105610508940895E894BB27662777274D
:10160000CB0197F908950BD0C4CFB5DF28F0BADF2E
:1016100018F0952309F0A6CFABCF1124EECFCADF87
:10162000A0F3959FD1F3950F50E0551F629FF001F5
:10163000729FBB27F00DB11D639FAA27F00DB11D4E
:10164000AA1F649F6627B00DA11D661F829F2227D7
:10165000B00DA11D621F739FB00DA11D621F839F5E
:10166000A00D611D221F749F3327A00D611D231F34
:10167000849F600D211D822F762F6A2F11249F5782
:1016800050408AF0E1F088234AF0EE0FFF1FBB1FA5
:10169000661F771F881F91505040A9F79E3F510544
:1016A00070F060CFAACF5F3FECF3983EDCF38695F5
:1016B00077956795B795F795E7959F5FC1F7FE2BEF
:1016C000880F911D9695879597F90895A1E21A2E96
:1016D000AA1BBB1BFD010DC0AA1FBB1FEE1FFF1FD6
:1016E000A217B307E407F50720F0A21BB30BE40B26
:1016F000F50B661F771F881F991F1A9469F760956D
:101700007095809590959B01AC01BD01CF01089526
:10171000EE0FFF1F0590F491E02D0994F894FFCF90
:101720000000650280000E0008000154656D7065C0
:1017300072617475726500536F696C204D6F6973C7
:10174000747572650054656D70657261747572654B
:101750003A2000430048756D69646974793A200045
:10176000250046414E204F4E0046414E204F4646F2
:101770000044525900534F494C0050554D503A4F78
:101780004E004D4F4953540050554D503A4F464628
:1017900000534F47475900000000005E03F907005F
:1017A0000000007A09F907FC081509070958090023
:00000001FF
